:103C00000C94341E0C94491E0C94491E0C94491EAD
:103C10000C94491E0C94491E0C94491E0C94491E88
:103C20000C94491E0C94491E0C94491E0C94491E78
:103C30000C94491E0C94491E0C94491E0C94491E68
:103C40000C94491E0C94491E0C94491E0C94491E58
:103C50000C94491E0C94491E0C94491E0C94491E48
:103C60000C94491E0C94491E11241FBECFEFD4E0C2
:103C7000DEBFCDBF11E0A0E0B1E0E6EDFEE302C0A3
:103C800005900D92A83CB107D9F70E941C1F0C9417
:103C9000691F0C94001E9091C00095FFFCCF80938B
:103CA000C60008951F93CF93DF93EC0110E0812F9E
:103CB00090E0FE0101900020E9F73197EC1BFD0B2D
:103CC0008E179F0720F0DF91CF911F9108958C0FE1
:103CD0009D1FFC0180810E944B1E1F5FE8CF6F92E9
:103CE0007F928F929F92AF92BF92CF92DF92EF928C
:103CF000FF920F931F93CF93DF93F62FE72FDA01F5
:103D0000680179011FB7F894F999FECF4F2F5E2F04
:103D1000BC01C40ED51EE61EF71E03E07724739483
:103D200085E0682E4C155D056E057F05A0F081E1EC
:103D300080935700E8951FBFDF91CF911F910F919E
:103D4000FF90EF90DF90CF90BF90AF909F908F90BB
:103D50007F906F900895EA01FA0100935700E8956B
:103D600007B600FCFDCF4A015B0120E430E08FEF95
:103D70009FEF8C149D04AE04BF0428F48C9111961F
:103D80009C9111971296F4010C0170925700E895DE
:103D9000112421503109F2E08F0E911CA11CB11C9D
:103DA0002115310521F7FE0160925700E89507B60D
:103DB00000FCFDCF40585F4F6F4F7F4FB3CFE0EC1B
:103DC000F0E080818E7F8083E1ECF0E080818F776E
:103DD000808380818F7B808380818F7D80838081C1
:103DE0008061808380818860808380818B7F8083F5
:103DF000E2ECF0E080818F7B808380818F7780830D
:103E000080818F7E808380818F7D80838081877F8A
:103E1000808380818460808380818260808387E664
:103E200090E09093C5008093C400089582E084B927
:103E300008958091C600089582E084B90E94DF1E33
:103E400084EA91E00E94521E2FEF30E782E0215079
:103E500030408040E1F700C00000F0E0E0E08591F4
:103E600094910196A1F43FEF80E792E031508040B9
:103E70009040E1F700C0000004EA10E020E030E0EC
:103E800040E051E060E070E0CB010E946F1E86EBE5
:103E900091E00E94521E2FEF30E782E02150304027
:103EA0008040E1F700C0000095B122E0922795B96B
:103EB0009FEF31EE84E0915030408040E1F700C048
:103EC000000085B1822785B90C94000090E080E065
:063ED0000895F894FFCFF5
:103ED6000C9434000C943E000C943E000C943E006E
:103EE6000C943E000C943E000C943E000C943E0054
:103EF6000C943E000C943E000C943E000C943E0044
:103F06000C943E000C943E000C943E000C943E0033
:103F16000C943E000C943E000C943E000C943E0023
:103F26000C943E000C943E000C943E000C943E0013
:103F36000C943E000C943E0011241FBECFEFD4E03B
:103F4600DEBFCDBF0E9440000C9450000C940000D0
:103F560081E084B991E085B1892785B92FEF31EEEB
:103F660084E0215030408040E1F700C00000F3CFEC
:103F7600F894FFCF426F6F746C6F61646572205660
:103F86003A302E310D0057726974696E6720636F7F
:083F96006D706C6574650D008F
:0400000300003C00BD
:00000001FF
