:100F00000C94B4070C94C9070C94C9070C94C90736
:100F10000C94C9070C94C9070C94C9070C94C90711
:100F20000C94C9070C94C9070C94C9070C94C90701
:100F30000C94C9070C94C9070C94C9070C94C907F1
:100F40000C94C9070C94C9070C94C9070C94C907E1
:100F50000C94C9070C94C9070C94C9070C94C907D1
:100F60000C94C9070C94C90711241FBECFEFD4E01D
:100F7000DEBFCDBF11E0A0E0B1E0E8E5F1E102C0E5
:100F800005900D92AA30B107D9F70E9428080C9459
:100F9000AA080C9480078091C00087FFFCCF809145
:100FA000C60008958091C60008959091C00095FFF5
:100FB000FCCF8093C6002FEF80E792E02150804065
:100FC0009040E1F700C0000085B191E0892785B924
:100FD00008951F93CF93DF93EC0110E0812F90E0F1
:100FE000FE0101900020E9F73197EC1BFD0B8E17F5
:100FF0009F0720F0DF91CF911F9108958C0F9D1FC7
:10100000FC0180810E94D5071F5FE8CF91E094B971
:1010100085B1892785B92FEF33ED80E3215030402A
:101020008040E1F700C00000E1ECF0E080818061E9
:101030008083808188608083E2ECF0E0808184603E
:10104000808380818260808385B1892785B90895F6
:10105000F8942FEF33EC89E0215030408040E1F7E5
:1010600000C0000091E094B985B1892785B92FEFC0
:1010700031EE84E0215030408040E1F700C00000B4
:1010800085B1892785B98091C0008E7F8093C0008B
:101090008091C1008F778093C1008091C1008F7BC8
:1010A0008093C1008091C1008F7D8093C1008091A9
:1010B000C10080618093C1008091C10088608093ED
:1010C000C1008091C1008B7F8093C1008091C200DC
:1010D0008F7B8093C2008091C2008F778093C20083
:1010E0008091C2008F7E8093C2008091C2008F7D6C
:1010F0008093C2008091C200877F8093C20080915C
:10110000C20084608093C2008091C200826080939C
:10111000C20087E690E09093C5008093C4009FEFE3
:1011200023ED30E3915020403040E1F700C0000053
:101130008091C6008091C60080E091E00E94E9079E
:101140008FEF93ED20E3815090402040E1F700C005
:081150000000F2CFF894FFCF7C
:0A1158004369616F6E65210D000010
:0400000300000F00EA
:00000001FF
